{
  "_format": "hh-sol-artifact-1",
  "contractName": "WalletContract",
  "sourceName": "contracts/WalletContract.sol",
  "abi": [
    {
      "inputs": [
        {
          "internalType": "address",
          "name": "walletOwner",
          "type": "address"
        }
      ],
      "stateMutability": "nonpayable",
      "type": "constructor"
    },
    {
      "anonymous": false,
      "inputs": [
        {
          "indexed": true,
          "internalType": "address",
          "name": "owner",
          "type": "address"
        },
        {
          "indexed": false,
          "internalType": "uint256",
          "name": "amount",
          "type": "uint256"
        }
      ],
      "name": "FundsReceived",
      "type": "event"
    },
    {
      "inputs": [
        {
          "internalType": "address",
          "name": "",
          "type": "address"
        }
      ],
      "name": "balances",
      "outputs": [
        {
          "internalType": "uint256",
          "name": "",
          "type": "uint256"
        }
      ],
      "stateMutability": "view",
      "type": "function"
    },
    {
      "inputs": [],
      "name": "getBalance",
      "outputs": [
        {
          "internalType": "uint256",
          "name": "",
          "type": "uint256"
        }
      ],
      "stateMutability": "view",
      "type": "function"
    },
    {
      "inputs": [
        {
          "internalType": "contract WalletContract",
          "name": "to",
          "type": "address"
        },
        {
          "internalType": "address",
          "name": "token",
          "type": "address"
        },
        {
          "internalType": "uint256",
          "name": "amount",
          "type": "uint256"
        }
      ],
      "name": "transfer",
      "outputs": [],
      "stateMutability": "nonpayable",
      "type": "function"
    },
    {
      "stateMutability": "payable",
      "type": "receive"
    }
  ],
  "bytecode": "0x60a060405234801561001057600080fd5b5060405162000c0038038062000c0083398181016040528101906100349190610140565b600073ffffffffffffffffffffffffffffffffffffffff168173ffffffffffffffffffffffffffffffffffffffff16036100a3576040517f08c379a000000000000000000000000000000000000000000000000000000000815260040161009a906101ca565b60405180910390fd5b8073ffffffffffffffffffffffffffffffffffffffff1660808173ffffffffffffffffffffffffffffffffffffffff1681525050506101ea565b600080fd5b600073ffffffffffffffffffffffffffffffffffffffff82169050919050565b600061010d826100e2565b9050919050565b61011d81610102565b811461012857600080fd5b50565b60008151905061013a81610114565b92915050565b600060208284031215610156576101556100dd565b5b60006101648482850161012b565b91505092915050565b600082825260208201905092915050565b7f496e76616c69642077616c6c6574206f776e6572206164647265737300000000600082015250565b60006101b4601c8361016d565b91506101bf8261017e565b602082019050919050565b600060208201905081810360008301526101e3816101a7565b9050919050565b6080516109f56200020b600039600081816043015260b401526109f56000f3fe6080604052600436106100385760003560e01c806312065fe01461012757806327e235e314610152578063beabacc81461018f57610122565b3661012257346000807f000000000000000000000000000000000000000000000000000000000000000073ffffffffffffffffffffffffffffffffffffffff1673ffffffffffffffffffffffffffffffffffffffff16815260200190815260200160002060008282546100ab91906105eb565b925050819055507f000000000000000000000000000000000000000000000000000000000000000073ffffffffffffffffffffffffffffffffffffffff167f8e47b87b0ef542cdfa1659c551d88bad38aa7f452d2bbb349ab7530dfec8be8f34604051610118919061062e565b60405180910390a2005b600080fd5b34801561013357600080fd5b5061013c6101b8565b604051610149919061062e565b60405180910390f35b34801561015e57600080fd5b50610179600480360381019061017491906106ac565b6101c0565b604051610186919061062e565b60405180910390f35b34801561019b57600080fd5b506101b660048036038101906101b19190610755565b6101d8565b005b600047905090565b60006020528060005260406000206000915090505481565b600073ffffffffffffffffffffffffffffffffffffffff168273ffffffffffffffffffffffffffffffffffffffff160361038357806000803373ffffffffffffffffffffffffffffffffffffffff1673ffffffffffffffffffffffffffffffffffffffff16815260200190815260200160002054101561028d576040517f08c379a000000000000000000000000000000000000000000000000000000000815260040161028490610805565b60405180910390fd5b806000803373ffffffffffffffffffffffffffffffffffffffff1673ffffffffffffffffffffffffffffffffffffffff16815260200190815260200160002060008282546102db9190610825565b92505081905550806000808573ffffffffffffffffffffffffffffffffffffffff1673ffffffffffffffffffffffffffffffffffffffff168152602001908152602001600020600082825461033091906105eb565b925050819055508273ffffffffffffffffffffffffffffffffffffffff166108fc829081150290604051600060405180830381858888f1935050505015801561037d573d6000803e3d6000fd5b506105ad565b6000829050818173ffffffffffffffffffffffffffffffffffffffff166370a08231306040518263ffffffff1660e01b81526004016103c29190610868565b602060405180830381865afa1580156103df573d6000803e3d6000fd5b505050506040513d601f19601f820116820180604052508101906104039190610898565b1015610444576040517f08c379a000000000000000000000000000000000000000000000000000000000815260040161043b90610805565b60405180910390fd5b816000803373ffffffffffffffffffffffffffffffffffffffff1673ffffffffffffffffffffffffffffffffffffffff16815260200190815260200160002060008282546104929190610825565b92505081905550816000808673ffffffffffffffffffffffffffffffffffffffff1673ffffffffffffffffffffffffffffffffffffffff16815260200190815260200160002060008282546104e791906105eb565b925050819055508073ffffffffffffffffffffffffffffffffffffffff1663a9059cbb85846040518363ffffffff1660e01b81526004016105299291906108c5565b6020604051808303816000875af1158015610548573d6000803e3d6000fd5b505050506040513d601f19601f8201168201806040525081019061056c9190610926565b6105ab576040517f08c379a00000000000000000000000000000000000000000000000000000000081526004016105a29061099f565b60405180910390fd5b505b505050565b6000819050919050565b7f4e487b7100000000000000000000000000000000000000000000000000000000600052601160045260246000fd5b60006105f6826105b2565b9150610601836105b2565b9250828201905080821115610619576106186105bc565b5b92915050565b610628816105b2565b82525050565b6000602082019050610643600083018461061f565b92915050565b600080fd5b600073ffffffffffffffffffffffffffffffffffffffff82169050919050565b60006106798261064e565b9050919050565b6106898161066e565b811461069457600080fd5b50565b6000813590506106a681610680565b92915050565b6000602082840312156106c2576106c1610649565b5b60006106d084828501610697565b91505092915050565b60006106e48261064e565b9050919050565b60006106f6826106d9565b9050919050565b610706816106eb565b811461071157600080fd5b50565b600081359050610723816106fd565b92915050565b610732816105b2565b811461073d57600080fd5b50565b60008135905061074f81610729565b92915050565b60008060006060848603121561076e5761076d610649565b5b600061077c86828701610714565b935050602061078d86828701610697565b925050604061079e86828701610740565b9150509250925092565b600082825260208201905092915050565b7f496e73756666696369656e742062616c616e6365000000000000000000000000600082015250565b60006107ef6014836107a8565b91506107fa826107b9565b602082019050919050565b6000602082019050818103600083015261081e816107e2565b9050919050565b6000610830826105b2565b915061083b836105b2565b9250828203905081811115610853576108526105bc565b5b92915050565b6108628161066e565b82525050565b600060208201905061087d6000830184610859565b92915050565b60008151905061089281610729565b92915050565b6000602082840312156108ae576108ad610649565b5b60006108bc84828501610883565b91505092915050565b60006040820190506108da6000830185610859565b6108e7602083018461061f565b9392505050565b60008115159050919050565b610903816108ee565b811461090e57600080fd5b50565b600081519050610920816108fa565b92915050565b60006020828403121561093c5761093b610649565b5b600061094a84828501610911565b91505092915050565b7f546f6b656e207472616e73666572206661696c65640000000000000000000000600082015250565b60006109896015836107a8565b915061099482610953565b602082019050919050565b600060208201905081810360008301526109b88161097c565b905091905056fea264697066735822122003f329b5273a1d8e13a1866854fe5375c06249969e32481f8ba6766370b0a87f64736f6c63430008130033",
  "linkReferences": {},
  "deployedLinkReferences": {}
}