{
  "_format": "hh-sol-artifact-1",
  "contractName": "WalletContractDeployer",
  "sourceName": "contracts/WalletContractDeployer.sol",
  "abi": [
    {
      "anonymous": false,
      "inputs": [
        {
          "indexed": true,
          "internalType": "address",
          "name": "from",
          "type": "address"
        },
        {
          "indexed": true,
          "internalType": "address",
          "name": "to",
          "type": "address"
        },
        {
          "indexed": false,
          "internalType": "uint256",
          "name": "amount",
          "type": "uint256"
        }
      ],
      "name": "Transfer",
      "type": "event"
    },
    {
      "anonymous": false,
      "inputs": [
        {
          "indexed": true,
          "internalType": "address",
          "name": "owner",
          "type": "address"
        },
        {
          "indexed": true,
          "internalType": "address",
          "name": "walletAddress",
          "type": "address"
        }
      ],
      "name": "WalletCreated",
      "type": "event"
    },
    {
      "inputs": [],
      "name": "createWallet",
      "outputs": [],
      "stateMutability": "nonpayable",
      "type": "function"
    },
    {
      "inputs": [
        {
          "internalType": "address",
          "name": "walletOwner",
          "type": "address"
        }
      ],
      "name": "getBalance",
      "outputs": [
        {
          "internalType": "uint256",
          "name": "",
          "type": "uint256"
        }
      ],
      "stateMutability": "view",
      "type": "function"
    },
    {
      "inputs": [
        {
          "internalType": "address",
          "name": "walletOwner",
          "type": "address"
        }
      ],
      "name": "getWalletAddress",
      "outputs": [
        {
          "internalType": "address",
          "name": "",
          "type": "address"
        }
      ],
      "stateMutability": "view",
      "type": "function"
    },
    {
      "inputs": [
        {
          "internalType": "address",
          "name": "walletAddress",
          "type": "address"
        }
      ],
      "name": "getWalletOwner",
      "outputs": [
        {
          "internalType": "address",
          "name": "",
          "type": "address"
        }
      ],
      "stateMutability": "view",
      "type": "function"
    },
    {
      "inputs": [
        {
          "internalType": "address",
          "name": "from",
          "type": "address"
        },
        {
          "internalType": "address",
          "name": "to",
          "type": "address"
        },
        {
          "internalType": "address",
          "name": "token",
          "type": "address"
        },
        {
          "internalType": "uint256",
          "name": "amount",
          "type": "uint256"
        }
      ],
      "name": "transfer",
      "outputs": [],
      "stateMutability": "nonpayable",
      "type": "function"
    }
  ],
  "bytecode": "0x608060405234801561001057600080fd5b50611842806100206000396000f3fe60806040523480156200001157600080fd5b50600436106200005e5760003560e01c806311ebbf2414620000635780631fd9afa5146200006f578063966708a514620000a5578063f18d03cc14620000db578063f8b2cb4f14620000fb575b600080fd5b6200006d62000131565b005b6200008d600480360381019062000087919062000a59565b6200042c565b6040516200009c919062000a9c565b60405180910390f35b620000c36004803603810190620000bd919062000a59565b62000495565b604051620000d2919062000a9c565b60405180910390f35b620000f96004803603810190620000f3919062000af4565b62000500565b005b62000119600480360381019062000113919062000a59565b62000907565b60405162000128919062000b77565b60405180910390f35b600073ffffffffffffffffffffffffffffffffffffffff166000803373ffffffffffffffffffffffffffffffffffffffff1673ffffffffffffffffffffffffffffffffffffffff16815260200190815260200160002060000160009054906101000a900473ffffffffffffffffffffffffffffffffffffffff1673ffffffffffffffffffffffffffffffffffffffff161462000204576040517f08c379a0000000000000000000000000000000000000000000000000000000008152600401620001fb9062000bf5565b60405180910390fd5b6000336040516200021590620009e1565b62000221919062000a9c565b604051809103906000f0801580156200023e573d6000803e3d6000fd5b50905060405180604001604052803373ffffffffffffffffffffffffffffffffffffffff1681526020018273ffffffffffffffffffffffffffffffffffffffff168152506000803373ffffffffffffffffffffffffffffffffffffffff1673ffffffffffffffffffffffffffffffffffffffff16815260200190815260200160002060008201518160000160006101000a81548173ffffffffffffffffffffffffffffffffffffffff021916908373ffffffffffffffffffffffffffffffffffffffff16021790555060208201518160010160006101000a81548173ffffffffffffffffffffffffffffffffffffffff021916908373ffffffffffffffffffffffffffffffffffffffff16021790555090505080600160003373ffffffffffffffffffffffffffffffffffffffff1673ffffffffffffffffffffffffffffffffffffffff16815260200190815260200160002060006101000a81548173ffffffffffffffffffffffffffffffffffffffff021916908373ffffffffffffffffffffffffffffffffffffffff1602179055508073ffffffffffffffffffffffffffffffffffffffff163373ffffffffffffffffffffffffffffffffffffffff167f5b03bfed1c14a02bdeceb5fa582eb1a5765fc0bc64ca0e6af4c20afc9487f08160405160405180910390a350565b6000600160008373ffffffffffffffffffffffffffffffffffffffff1673ffffffffffffffffffffffffffffffffffffffff16815260200190815260200160002060009054906101000a900473ffffffffffffffffffffffffffffffffffffffff169050919050565b60008060008373ffffffffffffffffffffffffffffffffffffffff1673ffffffffffffffffffffffffffffffffffffffff16815260200190815260200160002060000160009054906101000a900473ffffffffffffffffffffffffffffffffffffffff169050919050565b600073ffffffffffffffffffffffffffffffffffffffff166000808673ffffffffffffffffffffffffffffffffffffffff1673ffffffffffffffffffffffffffffffffffffffff16815260200190815260200160002060000160009054906101000a900473ffffffffffffffffffffffffffffffffffffffff1673ffffffffffffffffffffffffffffffffffffffff1603620005d3576040517f08c379a0000000000000000000000000000000000000000000000000000000008152600401620005ca9062000c67565b60405180910390fd5b600073ffffffffffffffffffffffffffffffffffffffff166000808573ffffffffffffffffffffffffffffffffffffffff1673ffffffffffffffffffffffffffffffffffffffff16815260200190815260200160002060000160009054906101000a900473ffffffffffffffffffffffffffffffffffffffff1673ffffffffffffffffffffffffffffffffffffffff1603620006a6576040517f08c379a00000000000000000000000000000000000000000000000000000000081526004016200069d9062000cd9565b60405180910390fd5b6000600160008673ffffffffffffffffffffffffffffffffffffffff1673ffffffffffffffffffffffffffffffffffffffff16815260200190815260200160002060009054906101000a900473ffffffffffffffffffffffffffffffffffffffff1690506000600160008673ffffffffffffffffffffffffffffffffffffffff1673ffffffffffffffffffffffffffffffffffffffff16815260200190815260200160002060009054906101000a900473ffffffffffffffffffffffffffffffffffffffff169050828273ffffffffffffffffffffffffffffffffffffffff166312065fe06040518163ffffffff1660e01b8152600401602060405180830381865afa158015620007bb573d6000803e3d6000fd5b505050506040513d601f19601f82011682018060405250810190620007e1919062000d12565b101562000825576040517f08c379a00000000000000000000000000000000000000000000000000000000081526004016200081c9062000d94565b60405180910390fd5b8173ffffffffffffffffffffffffffffffffffffffff1663beabacc88286866040518463ffffffff1660e01b8152600401620008649392919062000e21565b600060405180830381600087803b1580156200087f57600080fd5b505af115801562000894573d6000803e3d6000fd5b505050508473ffffffffffffffffffffffffffffffffffffffff168673ffffffffffffffffffffffffffffffffffffffff167fddf252ad1be2c89b69c2b068fc378daa952ba7f163c4a11628f55a4df523b3ef85604051620008f7919062000b77565b60405180910390a3505050505050565b6000600160008373ffffffffffffffffffffffffffffffffffffffff1673ffffffffffffffffffffffffffffffffffffffff16815260200190815260200160002060009054906101000a900473ffffffffffffffffffffffffffffffffffffffff1673ffffffffffffffffffffffffffffffffffffffff166312065fe06040518163ffffffff1660e01b8152600401602060405180830381865afa158015620009b4573d6000803e3d6000fd5b505050506040513d601f19601f82011682018060405250810190620009da919062000d12565b9050919050565b6109ae8062000e5f83390190565b600080fd5b600073ffffffffffffffffffffffffffffffffffffffff82169050919050565b600062000a2182620009f4565b9050919050565b62000a338162000a14565b811462000a3f57600080fd5b50565b60008135905062000a538162000a28565b92915050565b60006020828403121562000a725762000a71620009ef565b5b600062000a828482850162000a42565b91505092915050565b62000a968162000a14565b82525050565b600060208201905062000ab3600083018462000a8b565b92915050565b6000819050919050565b62000ace8162000ab9565b811462000ada57600080fd5b50565b60008135905062000aee8162000ac3565b92915050565b6000806000806080858703121562000b115762000b10620009ef565b5b600062000b218782880162000a42565b945050602062000b348782880162000a42565b935050604062000b478782880162000a42565b925050606062000b5a8782880162000add565b91505092959194509250565b62000b718162000ab9565b82525050565b600060208201905062000b8e600083018462000b66565b92915050565b600082825260208201905092915050565b7f57616c6c657420616c7265616479206578697374730000000000000000000000600082015250565b600062000bdd60158362000b94565b915062000bea8262000ba5565b602082019050919050565b6000602082019050818103600083015262000c108162000bce565b9050919050565b7f53656e6465722077616c6c657420646f6573206e6f7420657869737400000000600082015250565b600062000c4f601c8362000b94565b915062000c5c8262000c17565b602082019050919050565b6000602082019050818103600083015262000c828162000c40565b9050919050565b7f52656365697665722077616c6c657420646f6573206e6f742065786973740000600082015250565b600062000cc1601e8362000b94565b915062000cce8262000c89565b602082019050919050565b6000602082019050818103600083015262000cf48162000cb2565b9050919050565b60008151905062000d0c8162000ac3565b92915050565b60006020828403121562000d2b5762000d2a620009ef565b5b600062000d3b8482850162000cfb565b91505092915050565b7f496e73756666696369656e742062616c616e6365000000000000000000000000600082015250565b600062000d7c60148362000b94565b915062000d898262000d44565b602082019050919050565b6000602082019050818103600083015262000daf8162000d6d565b9050919050565b6000819050919050565b600062000de162000ddb62000dd584620009f4565b62000db6565b620009f4565b9050919050565b600062000df58262000dc0565b9050919050565b600062000e098262000de8565b9050919050565b62000e1b8162000dfc565b82525050565b600060608201905062000e38600083018662000e10565b62000e47602083018562000a8b565b62000e56604083018462000b66565b94935050505056fe60a060405234801561001057600080fd5b506040516109ae3803806109ae8339818101604052810190610032919061013e565b600073ffffffffffffffffffffffffffffffffffffffff168173ffffffffffffffffffffffffffffffffffffffff16036100a1576040517f08c379a0000000000000000000000000000000000000000000000000000000008152600401610098906101c8565b60405180910390fd5b8073ffffffffffffffffffffffffffffffffffffffff1660808173ffffffffffffffffffffffffffffffffffffffff1681525050506101e8565b600080fd5b600073ffffffffffffffffffffffffffffffffffffffff82169050919050565b600061010b826100e0565b9050919050565b61011b81610100565b811461012657600080fd5b50565b60008151905061013881610112565b92915050565b600060208284031215610154576101536100db565b5b600061016284828501610129565b91505092915050565b600082825260208201905092915050565b7f496e76616c69642077616c6c6574206f776e6572206164647265737300000000600082015250565b60006101b2601c8361016b565b91506101bd8261017c565b602082019050919050565b600060208201905081810360008301526101e1816101a5565b9050919050565b6080516107ac610202600039600060d201526107ac6000f3fe608060405234801561001057600080fd5b50600436106100415760003560e01c806312065fe01461004657806327e235e314610064578063beabacc814610094575b600080fd5b61004e6100b0565b60405161005b91906103bf565b60405180910390f35b61007e6004803603810190610079919061043d565b6100b8565b60405161008b91906103bf565b60405180910390f35b6100ae60048036038101906100a991906104d4565b6100d0565b005b600047905090565b60006020528060005260406000206000915090505481565b7f000000000000000000000000000000000000000000000000000000000000000073ffffffffffffffffffffffffffffffffffffffff163373ffffffffffffffffffffffffffffffffffffffff161461015e576040517f08c379a000000000000000000000000000000000000000000000000000000000815260040161015590610584565b60405180910390fd5b600073ffffffffffffffffffffffffffffffffffffffff168273ffffffffffffffffffffffffffffffffffffffff160361022157804710156101d5576040517f08c379a00000000000000000000000000000000000000000000000000000000081526004016101cc906105f0565b60405180910390fd5b8273ffffffffffffffffffffffffffffffffffffffff166108fc829081150290604051600060405180830381858888f1935050505015801561021b573d6000803e3d6000fd5b506103a1565b6000829050818173ffffffffffffffffffffffffffffffffffffffff166370a08231306040518263ffffffff1660e01b8152600401610260919061061f565b602060405180830381865afa15801561027d573d6000803e3d6000fd5b505050506040513d601f19601f820116820180604052508101906102a1919061064f565b10156102e2576040517f08c379a00000000000000000000000000000000000000000000000000000000081526004016102d9906105f0565b60405180910390fd5b8073ffffffffffffffffffffffffffffffffffffffff1663a9059cbb85846040518363ffffffff1660e01b815260040161031d92919061067c565b6020604051808303816000875af115801561033c573d6000803e3d6000fd5b505050506040513d601f19601f8201168201806040525081019061036091906106dd565b61039f576040517f08c379a000000000000000000000000000000000000000000000000000000000815260040161039690610756565b60405180910390fd5b505b505050565b6000819050919050565b6103b9816103a6565b82525050565b60006020820190506103d460008301846103b0565b92915050565b600080fd5b600073ffffffffffffffffffffffffffffffffffffffff82169050919050565b600061040a826103df565b9050919050565b61041a816103ff565b811461042557600080fd5b50565b60008135905061043781610411565b92915050565b600060208284031215610453576104526103da565b5b600061046184828501610428565b91505092915050565b6000610475826103ff565b9050919050565b6104858161046a565b811461049057600080fd5b50565b6000813590506104a28161047c565b92915050565b6104b1816103a6565b81146104bc57600080fd5b50565b6000813590506104ce816104a8565b92915050565b6000806000606084860312156104ed576104ec6103da565b5b60006104fb86828701610493565b935050602061050c86828701610428565b925050604061051d868287016104bf565b9150509250925092565b600082825260208201905092915050565b7f43616c6c6572206973206e6f7420746865206f776e6572000000000000000000600082015250565b600061056e601783610527565b915061057982610538565b602082019050919050565b6000602082019050818103600083015261059d81610561565b9050919050565b7f496e73756666696369656e742062616c616e6365000000000000000000000000600082015250565b60006105da601483610527565b91506105e5826105a4565b602082019050919050565b60006020820190508181036000830152610609816105cd565b9050919050565b610619816103ff565b82525050565b60006020820190506106346000830184610610565b92915050565b600081519050610649816104a8565b92915050565b600060208284031215610665576106646103da565b5b60006106738482850161063a565b91505092915050565b60006040820190506106916000830185610610565b61069e60208301846103b0565b9392505050565b60008115159050919050565b6106ba816106a5565b81146106c557600080fd5b50565b6000815190506106d7816106b1565b92915050565b6000602082840312156106f3576106f26103da565b5b6000610701848285016106c8565b91505092915050565b7f546f6b656e207472616e73666572206661696c65640000000000000000000000600082015250565b6000610740601583610527565b915061074b8261070a565b602082019050919050565b6000602082019050818103600083015261076f81610733565b905091905056fea264697066735822122085136f0ebd1697249dfe1bb5c7751b3dc25d86f2adc28f271735b6ace0a32c9b64736f6c63430008130033a2646970667358221220dd38489231f254a092ea85e74f7e01cc16e2490d70864e3a9f2eb2973b9f946564736f6c63430008130033",
  "linkReferences": {},
  "deployedLinkReferences": {}
}