{
  "_format": "hh-sol-artifact-1",
  "contractName": "WalletContractDeployer",
  "sourceName": "contracts/WalletContractDeployer.sol",
  "abi": [
    {
      "anonymous": false,
      "inputs": [
        {
          "indexed": true,
          "internalType": "address",
          "name": "from",
          "type": "address"
        },
        {
          "indexed": true,
          "internalType": "address",
          "name": "to",
          "type": "address"
        },
        {
          "indexed": false,
          "internalType": "uint256",
          "name": "amount",
          "type": "uint256"
        }
      ],
      "name": "Transfer",
      "type": "event"
    },
    {
      "anonymous": false,
      "inputs": [
        {
          "indexed": true,
          "internalType": "address",
          "name": "owner",
          "type": "address"
        }
      ],
      "name": "WalletCreated",
      "type": "event"
    },
    {
      "inputs": [],
      "name": "createWallet",
      "outputs": [],
      "stateMutability": "nonpayable",
      "type": "function"
    },
    {
      "inputs": [
        {
          "internalType": "address",
          "name": "walletOwner",
          "type": "address"
        }
      ],
      "name": "getBalance",
      "outputs": [
        {
          "internalType": "uint256",
          "name": "",
          "type": "uint256"
        }
      ],
      "stateMutability": "view",
      "type": "function"
    },
    {
      "inputs": [
        {
          "internalType": "address",
          "name": "from",
          "type": "address"
        },
        {
          "internalType": "address",
          "name": "to",
          "type": "address"
        },
        {
          "internalType": "address",
          "name": "token",
          "type": "address"
        },
        {
          "internalType": "uint256",
          "name": "amount",
          "type": "uint256"
        }
      ],
      "name": "transfer",
      "outputs": [],
      "stateMutability": "nonpayable",
      "type": "function"
    }
  ],
  "bytecode": "0x608060405234801561001057600080fd5b506115c5806100206000396000f3fe60806040523480156200001157600080fd5b5060043610620000465760003560e01c806311ebbf24146200004b578063f18d03cc1462000057578063f8b2cb4f1462000077575b600080fd5b62000055620000ad565b005b6200007560048036038101906200006f919062000817565b6200027d565b005b6200009560048036038101906200008f919062000889565b62000688565b604051620000a49190620008cc565b60405180910390f35b600073ffffffffffffffffffffffffffffffffffffffff166000803373ffffffffffffffffffffffffffffffffffffffff1673ffffffffffffffffffffffffffffffffffffffff16815260200190815260200160002060000160009054906101000a900473ffffffffffffffffffffffffffffffffffffffff1673ffffffffffffffffffffffffffffffffffffffff161462000180576040517f08c379a000000000000000000000000000000000000000000000000000000000815260040162000177906200094a565b60405180910390fd5b336040516200018f9062000764565b6200019b91906200097d565b604051809103906000f080158015620001b8573d6000803e3d6000fd5b506000803373ffffffffffffffffffffffffffffffffffffffff1673ffffffffffffffffffffffffffffffffffffffff16815260200190815260200160002060000160006101000a81548173ffffffffffffffffffffffffffffffffffffffff021916908373ffffffffffffffffffffffffffffffffffffffff1602179055503373ffffffffffffffffffffffffffffffffffffffff167f234cf33b32239d80b54161e2396c80cdeaf4d34161300e54d8bc01eb7c0ea55360405160405180910390a2565b600073ffffffffffffffffffffffffffffffffffffffff166000808673ffffffffffffffffffffffffffffffffffffffff1673ffffffffffffffffffffffffffffffffffffffff16815260200190815260200160002060000160009054906101000a900473ffffffffffffffffffffffffffffffffffffffff1673ffffffffffffffffffffffffffffffffffffffff160362000350576040517f08c379a00000000000000000000000000000000000000000000000000000000081526004016200034790620009ea565b60405180910390fd5b600073ffffffffffffffffffffffffffffffffffffffff166000808573ffffffffffffffffffffffffffffffffffffffff1673ffffffffffffffffffffffffffffffffffffffff16815260200190815260200160002060000160009054906101000a900473ffffffffffffffffffffffffffffffffffffffff1673ffffffffffffffffffffffffffffffffffffffff160362000423576040517f08c379a00000000000000000000000000000000000000000000000000000000081526004016200041a9062000a5c565b60405180910390fd5b60008060008673ffffffffffffffffffffffffffffffffffffffff1673ffffffffffffffffffffffffffffffffffffffff16815260200190815260200160002060000160009054906101000a900473ffffffffffffffffffffffffffffffffffffffff16905060008060008673ffffffffffffffffffffffffffffffffffffffff1673ffffffffffffffffffffffffffffffffffffffff16815260200190815260200160002060000160009054906101000a900473ffffffffffffffffffffffffffffffffffffffff169050828273ffffffffffffffffffffffffffffffffffffffff166312065fe06040518163ffffffff1660e01b8152600401602060405180830381865afa1580156200053c573d6000803e3d6000fd5b505050506040513d601f19601f8201168201806040525081019062000562919062000a95565b1015620005a6576040517f08c379a00000000000000000000000000000000000000000000000000000000081526004016200059d9062000b17565b60405180910390fd5b8173ffffffffffffffffffffffffffffffffffffffff1663beabacc88286866040518463ffffffff1660e01b8152600401620005e59392919062000ba4565b600060405180830381600087803b1580156200060057600080fd5b505af115801562000615573d6000803e3d6000fd5b505050508473ffffffffffffffffffffffffffffffffffffffff168673ffffffffffffffffffffffffffffffffffffffff167fddf252ad1be2c89b69c2b068fc378daa952ba7f163c4a11628f55a4df523b3ef85604051620006789190620008cc565b60405180910390a3505050505050565b60008060008373ffffffffffffffffffffffffffffffffffffffff1673ffffffffffffffffffffffffffffffffffffffff16815260200190815260200160002060000160009054906101000a900473ffffffffffffffffffffffffffffffffffffffff1673ffffffffffffffffffffffffffffffffffffffff166312065fe06040518163ffffffff1660e01b8152600401602060405180830381865afa15801562000737573d6000803e3d6000fd5b505050506040513d601f19601f820116820180604052508101906200075d919062000a95565b9050919050565b6109ae8062000be283390190565b600080fd5b600073ffffffffffffffffffffffffffffffffffffffff82169050919050565b6000620007a48262000777565b9050919050565b620007b68162000797565b8114620007c257600080fd5b50565b600081359050620007d681620007ab565b92915050565b6000819050919050565b620007f181620007dc565b8114620007fd57600080fd5b50565b6000813590506200081181620007e6565b92915050565b6000806000806080858703121562000834576200083362000772565b5b60006200084487828801620007c5565b94505060206200085787828801620007c5565b93505060406200086a87828801620007c5565b92505060606200087d8782880162000800565b91505092959194509250565b600060208284031215620008a257620008a162000772565b5b6000620008b284828501620007c5565b91505092915050565b620008c681620007dc565b82525050565b6000602082019050620008e36000830184620008bb565b92915050565b600082825260208201905092915050565b7f57616c6c657420616c7265616479206578697374730000000000000000000000600082015250565b600062000932601583620008e9565b91506200093f82620008fa565b602082019050919050565b60006020820190508181036000830152620009658162000923565b9050919050565b620009778162000797565b82525050565b60006020820190506200099460008301846200096c565b92915050565b7f53656e6465722077616c6c657420646f6573206e6f7420657869737400000000600082015250565b6000620009d2601c83620008e9565b9150620009df826200099a565b602082019050919050565b6000602082019050818103600083015262000a0581620009c3565b9050919050565b7f52656365697665722077616c6c657420646f6573206e6f742065786973740000600082015250565b600062000a44601e83620008e9565b915062000a518262000a0c565b602082019050919050565b6000602082019050818103600083015262000a778162000a35565b9050919050565b60008151905062000a8f81620007e6565b92915050565b60006020828403121562000aae5762000aad62000772565b5b600062000abe8482850162000a7e565b91505092915050565b7f496e73756666696369656e742062616c616e6365000000000000000000000000600082015250565b600062000aff601483620008e9565b915062000b0c8262000ac7565b602082019050919050565b6000602082019050818103600083015262000b328162000af0565b9050919050565b6000819050919050565b600062000b6462000b5e62000b588462000777565b62000b39565b62000777565b9050919050565b600062000b788262000b43565b9050919050565b600062000b8c8262000b6b565b9050919050565b62000b9e8162000b7f565b82525050565b600060608201905062000bbb600083018662000b93565b62000bca60208301856200096c565b62000bd96040830184620008bb565b94935050505056fe60a060405234801561001057600080fd5b506040516109ae3803806109ae8339818101604052810190610032919061013e565b600073ffffffffffffffffffffffffffffffffffffffff168173ffffffffffffffffffffffffffffffffffffffff16036100a1576040517f08c379a0000000000000000000000000000000000000000000000000000000008152600401610098906101c8565b60405180910390fd5b8073ffffffffffffffffffffffffffffffffffffffff1660808173ffffffffffffffffffffffffffffffffffffffff1681525050506101e8565b600080fd5b600073ffffffffffffffffffffffffffffffffffffffff82169050919050565b600061010b826100e0565b9050919050565b61011b81610100565b811461012657600080fd5b50565b60008151905061013881610112565b92915050565b600060208284031215610154576101536100db565b5b600061016284828501610129565b91505092915050565b600082825260208201905092915050565b7f496e76616c69642077616c6c6574206f776e6572206164647265737300000000600082015250565b60006101b2601c8361016b565b91506101bd8261017c565b602082019050919050565b600060208201905081810360008301526101e1816101a5565b9050919050565b6080516107ac610202600039600060d201526107ac6000f3fe608060405234801561001057600080fd5b50600436106100415760003560e01c806312065fe01461004657806327e235e314610064578063beabacc814610094575b600080fd5b61004e6100b0565b60405161005b91906103bf565b60405180910390f35b61007e6004803603810190610079919061043d565b6100b8565b60405161008b91906103bf565b60405180910390f35b6100ae60048036038101906100a991906104d4565b6100d0565b005b600047905090565b60006020528060005260406000206000915090505481565b7f000000000000000000000000000000000000000000000000000000000000000073ffffffffffffffffffffffffffffffffffffffff163373ffffffffffffffffffffffffffffffffffffffff161461015e576040517f08c379a000000000000000000000000000000000000000000000000000000000815260040161015590610584565b60405180910390fd5b600073ffffffffffffffffffffffffffffffffffffffff168273ffffffffffffffffffffffffffffffffffffffff160361022157804710156101d5576040517f08c379a00000000000000000000000000000000000000000000000000000000081526004016101cc906105f0565b60405180910390fd5b8273ffffffffffffffffffffffffffffffffffffffff166108fc829081150290604051600060405180830381858888f1935050505015801561021b573d6000803e3d6000fd5b506103a1565b6000829050818173ffffffffffffffffffffffffffffffffffffffff166370a08231306040518263ffffffff1660e01b8152600401610260919061061f565b602060405180830381865afa15801561027d573d6000803e3d6000fd5b505050506040513d601f19601f820116820180604052508101906102a1919061064f565b10156102e2576040517f08c379a00000000000000000000000000000000000000000000000000000000081526004016102d9906105f0565b60405180910390fd5b8073ffffffffffffffffffffffffffffffffffffffff1663a9059cbb85846040518363ffffffff1660e01b815260040161031d92919061067c565b6020604051808303816000875af115801561033c573d6000803e3d6000fd5b505050506040513d601f19601f8201168201806040525081019061036091906106dd565b61039f576040517f08c379a000000000000000000000000000000000000000000000000000000000815260040161039690610756565b60405180910390fd5b505b505050565b6000819050919050565b6103b9816103a6565b82525050565b60006020820190506103d460008301846103b0565b92915050565b600080fd5b600073ffffffffffffffffffffffffffffffffffffffff82169050919050565b600061040a826103df565b9050919050565b61041a816103ff565b811461042557600080fd5b50565b60008135905061043781610411565b92915050565b600060208284031215610453576104526103da565b5b600061046184828501610428565b91505092915050565b6000610475826103ff565b9050919050565b6104858161046a565b811461049057600080fd5b50565b6000813590506104a28161047c565b92915050565b6104b1816103a6565b81146104bc57600080fd5b50565b6000813590506104ce816104a8565b92915050565b6000806000606084860312156104ed576104ec6103da565b5b60006104fb86828701610493565b935050602061050c86828701610428565b925050604061051d868287016104bf565b9150509250925092565b600082825260208201905092915050565b7f43616c6c6572206973206e6f7420746865206f776e6572000000000000000000600082015250565b600061056e601783610527565b915061057982610538565b602082019050919050565b6000602082019050818103600083015261059d81610561565b9050919050565b7f496e73756666696369656e742062616c616e6365000000000000000000000000600082015250565b60006105da601483610527565b91506105e5826105a4565b602082019050919050565b60006020820190508181036000830152610609816105cd565b9050919050565b610619816103ff565b82525050565b60006020820190506106346000830184610610565b92915050565b600081519050610649816104a8565b92915050565b600060208284031215610665576106646103da565b5b60006106738482850161063a565b91505092915050565b60006040820190506106916000830185610610565b61069e60208301846103b0565b9392505050565b60008115159050919050565b6106ba816106a5565b81146106c557600080fd5b50565b6000815190506106d7816106b1565b92915050565b6000602082840312156106f3576106f26103da565b5b6000610701848285016106c8565b91505092915050565b7f546f6b656e207472616e73666572206661696c65640000000000000000000000600082015250565b6000610740601583610527565b915061074b8261070a565b602082019050919050565b6000602082019050818103600083015261076f81610733565b905091905056fea26469706673582212200a87ee55f6c82fe6bfa809f9aaabf357b8a90de1d3571f6cbe9abd91ff4b0c3364736f6c63430008120033a264697066735822122050f6d1d6dc16852b55f147c4edc411defd1aa939c595162cb3d2026a828cf37a64736f6c63430008120033",
  "linkReferences": {},
  "deployedLinkReferences": {}
}