{
  "_format": "hh-sol-artifact-1",
  "contractName": "WalletContract",
  "sourceName": "contracts/WalletContract.sol",
  "abi": [
    {
      "inputs": [
        {
          "internalType": "address",
          "name": "walletOwner",
          "type": "address"
        }
      ],
      "stateMutability": "nonpayable",
      "type": "constructor"
    },
    {
      "inputs": [
        {
          "internalType": "address",
          "name": "",
          "type": "address"
        }
      ],
      "name": "balances",
      "outputs": [
        {
          "internalType": "uint256",
          "name": "",
          "type": "uint256"
        }
      ],
      "stateMutability": "view",
      "type": "function"
    },
    {
      "inputs": [],
      "name": "getBalance",
      "outputs": [
        {
          "internalType": "uint256",
          "name": "",
          "type": "uint256"
        }
      ],
      "stateMutability": "view",
      "type": "function"
    },
    {
      "inputs": [
        {
          "internalType": "contract WalletContract",
          "name": "to",
          "type": "address"
        },
        {
          "internalType": "address",
          "name": "token",
          "type": "address"
        },
        {
          "internalType": "uint256",
          "name": "amount",
          "type": "uint256"
        }
      ],
      "name": "transfer",
      "outputs": [],
      "stateMutability": "nonpayable",
      "type": "function"
    }
  ],
  "bytecode": "0x60a060405234801561001057600080fd5b506040516109ae3803806109ae8339818101604052810190610032919061013e565b600073ffffffffffffffffffffffffffffffffffffffff168173ffffffffffffffffffffffffffffffffffffffff16036100a1576040517f08c379a0000000000000000000000000000000000000000000000000000000008152600401610098906101c8565b60405180910390fd5b8073ffffffffffffffffffffffffffffffffffffffff1660808173ffffffffffffffffffffffffffffffffffffffff1681525050506101e8565b600080fd5b600073ffffffffffffffffffffffffffffffffffffffff82169050919050565b600061010b826100e0565b9050919050565b61011b81610100565b811461012657600080fd5b50565b60008151905061013881610112565b92915050565b600060208284031215610154576101536100db565b5b600061016284828501610129565b91505092915050565b600082825260208201905092915050565b7f496e76616c69642077616c6c6574206f776e6572206164647265737300000000600082015250565b60006101b2601c8361016b565b91506101bd8261017c565b602082019050919050565b600060208201905081810360008301526101e1816101a5565b9050919050565b6080516107ac610202600039600060d201526107ac6000f3fe608060405234801561001057600080fd5b50600436106100415760003560e01c806312065fe01461004657806327e235e314610064578063beabacc814610094575b600080fd5b61004e6100b0565b60405161005b91906103bf565b60405180910390f35b61007e6004803603810190610079919061043d565b6100b8565b60405161008b91906103bf565b60405180910390f35b6100ae60048036038101906100a991906104d4565b6100d0565b005b600047905090565b60006020528060005260406000206000915090505481565b7f000000000000000000000000000000000000000000000000000000000000000073ffffffffffffffffffffffffffffffffffffffff163373ffffffffffffffffffffffffffffffffffffffff161461015e576040517f08c379a000000000000000000000000000000000000000000000000000000000815260040161015590610584565b60405180910390fd5b600073ffffffffffffffffffffffffffffffffffffffff168273ffffffffffffffffffffffffffffffffffffffff160361022157804710156101d5576040517f08c379a00000000000000000000000000000000000000000000000000000000081526004016101cc906105f0565b60405180910390fd5b8273ffffffffffffffffffffffffffffffffffffffff166108fc829081150290604051600060405180830381858888f1935050505015801561021b573d6000803e3d6000fd5b506103a1565b6000829050818173ffffffffffffffffffffffffffffffffffffffff166370a08231306040518263ffffffff1660e01b8152600401610260919061061f565b602060405180830381865afa15801561027d573d6000803e3d6000fd5b505050506040513d601f19601f820116820180604052508101906102a1919061064f565b10156102e2576040517f08c379a00000000000000000000000000000000000000000000000000000000081526004016102d9906105f0565b60405180910390fd5b8073ffffffffffffffffffffffffffffffffffffffff1663a9059cbb85846040518363ffffffff1660e01b815260040161031d92919061067c565b6020604051808303816000875af115801561033c573d6000803e3d6000fd5b505050506040513d601f19601f8201168201806040525081019061036091906106dd565b61039f576040517f08c379a000000000000000000000000000000000000000000000000000000000815260040161039690610756565b60405180910390fd5b505b505050565b6000819050919050565b6103b9816103a6565b82525050565b60006020820190506103d460008301846103b0565b92915050565b600080fd5b600073ffffffffffffffffffffffffffffffffffffffff82169050919050565b600061040a826103df565b9050919050565b61041a816103ff565b811461042557600080fd5b50565b60008135905061043781610411565b92915050565b600060208284031215610453576104526103da565b5b600061046184828501610428565b91505092915050565b6000610475826103ff565b9050919050565b6104858161046a565b811461049057600080fd5b50565b6000813590506104a28161047c565b92915050565b6104b1816103a6565b81146104bc57600080fd5b50565b6000813590506104ce816104a8565b92915050565b6000806000606084860312156104ed576104ec6103da565b5b60006104fb86828701610493565b935050602061050c86828701610428565b925050604061051d868287016104bf565b9150509250925092565b600082825260208201905092915050565b7f43616c6c6572206973206e6f7420746865206f776e6572000000000000000000600082015250565b600061056e601783610527565b915061057982610538565b602082019050919050565b6000602082019050818103600083015261059d81610561565b9050919050565b7f496e73756666696369656e742062616c616e6365000000000000000000000000600082015250565b60006105da601483610527565b91506105e5826105a4565b602082019050919050565b60006020820190508181036000830152610609816105cd565b9050919050565b610619816103ff565b82525050565b60006020820190506106346000830184610610565b92915050565b600081519050610649816104a8565b92915050565b600060208284031215610665576106646103da565b5b60006106738482850161063a565b91505092915050565b60006040820190506106916000830185610610565b61069e60208301846103b0565b9392505050565b60008115159050919050565b6106ba816106a5565b81146106c557600080fd5b50565b6000815190506106d7816106b1565b92915050565b6000602082840312156106f3576106f26103da565b5b6000610701848285016106c8565b91505092915050565b7f546f6b656e207472616e73666572206661696c65640000000000000000000000600082015250565b6000610740601583610527565b915061074b8261070a565b602082019050919050565b6000602082019050818103600083015261076f81610733565b905091905056fea26469706673582212200a87ee55f6c82fe6bfa809f9aaabf357b8a90de1d3571f6cbe9abd91ff4b0c3364736f6c63430008120033",
  "linkReferences": {},
  "deployedLinkReferences": {}
}