{
  "_format": "hh-sol-artifact-1",
  "contractName": "WalletContractDeployer",
  "sourceName": "contracts/WalletContractDeployer.sol",
  "abi": [
    {
      "anonymous": false,
      "inputs": [
        {
          "indexed": true,
          "internalType": "address",
          "name": "from",
          "type": "address"
        },
        {
          "indexed": true,
          "internalType": "address",
          "name": "to",
          "type": "address"
        },
        {
          "indexed": false,
          "internalType": "uint256",
          "name": "amount",
          "type": "uint256"
        }
      ],
      "name": "Transfer",
      "type": "event"
    },
    {
      "anonymous": false,
      "inputs": [
        {
          "indexed": true,
          "internalType": "address",
          "name": "owner",
          "type": "address"
        },
        {
          "indexed": true,
          "internalType": "address",
          "name": "walletAddress",
          "type": "address"
        }
      ],
      "name": "WalletCreated",
      "type": "event"
    },
    {
      "inputs": [],
      "name": "createWallet",
      "outputs": [],
      "stateMutability": "nonpayable",
      "type": "function"
    },
    {
      "inputs": [
        {
          "internalType": "address",
          "name": "walletOwner",
          "type": "address"
        }
      ],
      "name": "getBalance",
      "outputs": [
        {
          "internalType": "uint256",
          "name": "",
          "type": "uint256"
        }
      ],
      "stateMutability": "view",
      "type": "function"
    },
    {
      "inputs": [
        {
          "internalType": "address",
          "name": "walletOwner",
          "type": "address"
        }
      ],
      "name": "getWalletAddress",
      "outputs": [
        {
          "internalType": "address",
          "name": "",
          "type": "address"
        }
      ],
      "stateMutability": "view",
      "type": "function"
    },
    {
      "inputs": [
        {
          "internalType": "address",
          "name": "walletAddress",
          "type": "address"
        }
      ],
      "name": "getWalletOwner",
      "outputs": [
        {
          "internalType": "address",
          "name": "",
          "type": "address"
        }
      ],
      "stateMutability": "view",
      "type": "function"
    },
    {
      "inputs": [
        {
          "internalType": "address",
          "name": "",
          "type": "address"
        },
        {
          "internalType": "address",
          "name": "",
          "type": "address"
        }
      ],
      "name": "tokenBalances",
      "outputs": [
        {
          "internalType": "uint256",
          "name": "",
          "type": "uint256"
        }
      ],
      "stateMutability": "view",
      "type": "function"
    },
    {
      "inputs": [
        {
          "internalType": "address",
          "name": "from",
          "type": "address"
        },
        {
          "internalType": "address",
          "name": "to",
          "type": "address"
        },
        {
          "internalType": "address",
          "name": "token",
          "type": "address"
        },
        {
          "internalType": "uint256",
          "name": "amount",
          "type": "uint256"
        }
      ],
      "name": "transfer",
      "outputs": [],
      "stateMutability": "nonpayable",
      "type": "function"
    }
  ],
  "bytecode": "0x608060405234801561001057600080fd5b50611ccc806100206000396000f3fe60806040523480156200001157600080fd5b50600436106200006a5760003560e01c806311ebbf24146200006f5780631fd9afa5146200007b5780634dbf6c5a14620000b1578063966708a514620000e7578063f18d03cc146200011d578063f8b2cb4f146200013d575b600080fd5b6200007962000173565b005b62000099600480360381019062000093919062000ac5565b6200046e565b604051620000a8919062000b08565b60405180910390f35b620000cf6004803603810190620000c9919062000b25565b620004d7565b604051620000de919062000b87565b60405180910390f35b620001056004803603810190620000ff919062000ac5565b620004fc565b60405162000114919062000b08565b60405180910390f35b6200013b600480360381019062000135919062000bd5565b62000567565b005b6200015b600480360381019062000155919062000ac5565b6200096e565b6040516200016a919062000b87565b60405180910390f35b600073ffffffffffffffffffffffffffffffffffffffff166000803373ffffffffffffffffffffffffffffffffffffffff1673ffffffffffffffffffffffffffffffffffffffff16815260200190815260200160002060000160009054906101000a900473ffffffffffffffffffffffffffffffffffffffff1673ffffffffffffffffffffffffffffffffffffffff161462000246576040517f08c379a00000000000000000000000000000000000000000000000000000000081526004016200023d9062000ca8565b60405180910390fd5b600033604051620002579062000a4d565b62000263919062000b08565b604051809103906000f08015801562000280573d6000803e3d6000fd5b50905060405180604001604052803373ffffffffffffffffffffffffffffffffffffffff1681526020018273ffffffffffffffffffffffffffffffffffffffff168152506000803373ffffffffffffffffffffffffffffffffffffffff1673ffffffffffffffffffffffffffffffffffffffff16815260200190815260200160002060008201518160000160006101000a81548173ffffffffffffffffffffffffffffffffffffffff021916908373ffffffffffffffffffffffffffffffffffffffff16021790555060208201518160010160006101000a81548173ffffffffffffffffffffffffffffffffffffffff021916908373ffffffffffffffffffffffffffffffffffffffff16021790555090505080600160003373ffffffffffffffffffffffffffffffffffffffff1673ffffffffffffffffffffffffffffffffffffffff16815260200190815260200160002060006101000a81548173ffffffffffffffffffffffffffffffffffffffff021916908373ffffffffffffffffffffffffffffffffffffffff1602179055508073ffffffffffffffffffffffffffffffffffffffff163373ffffffffffffffffffffffffffffffffffffffff167f5b03bfed1c14a02bdeceb5fa582eb1a5765fc0bc64ca0e6af4c20afc9487f08160405160405180910390a350565b6000600160008373ffffffffffffffffffffffffffffffffffffffff1673ffffffffffffffffffffffffffffffffffffffff16815260200190815260200160002060009054906101000a900473ffffffffffffffffffffffffffffffffffffffff169050919050565b6002602052816000526040600020602052806000526040600020600091509150505481565b60008060008373ffffffffffffffffffffffffffffffffffffffff1673ffffffffffffffffffffffffffffffffffffffff16815260200190815260200160002060000160009054906101000a900473ffffffffffffffffffffffffffffffffffffffff169050919050565b600073ffffffffffffffffffffffffffffffffffffffff166000808673ffffffffffffffffffffffffffffffffffffffff1673ffffffffffffffffffffffffffffffffffffffff16815260200190815260200160002060000160009054906101000a900473ffffffffffffffffffffffffffffffffffffffff1673ffffffffffffffffffffffffffffffffffffffff16036200063a576040517f08c379a0000000000000000000000000000000000000000000000000000000008152600401620006319062000d1a565b60405180910390fd5b600073ffffffffffffffffffffffffffffffffffffffff166000808573ffffffffffffffffffffffffffffffffffffffff1673ffffffffffffffffffffffffffffffffffffffff16815260200190815260200160002060000160009054906101000a900473ffffffffffffffffffffffffffffffffffffffff1673ffffffffffffffffffffffffffffffffffffffff16036200070d576040517f08c379a0000000000000000000000000000000000000000000000000000000008152600401620007049062000d8c565b60405180910390fd5b6000600160008673ffffffffffffffffffffffffffffffffffffffff1673ffffffffffffffffffffffffffffffffffffffff16815260200190815260200160002060009054906101000a900473ffffffffffffffffffffffffffffffffffffffff1690506000600160008673ffffffffffffffffffffffffffffffffffffffff1673ffffffffffffffffffffffffffffffffffffffff16815260200190815260200160002060009054906101000a900473ffffffffffffffffffffffffffffffffffffffff169050828273ffffffffffffffffffffffffffffffffffffffff166312065fe06040518163ffffffff1660e01b8152600401602060405180830381865afa15801562000822573d6000803e3d6000fd5b505050506040513d601f19601f8201168201806040525081019062000848919062000dc5565b10156200088c576040517f08c379a0000000000000000000000000000000000000000000000000000000008152600401620008839062000e47565b60405180910390fd5b8173ffffffffffffffffffffffffffffffffffffffff1663beabacc88286866040518463ffffffff1660e01b8152600401620008cb9392919062000ed4565b600060405180830381600087803b158015620008e657600080fd5b505af1158015620008fb573d6000803e3d6000fd5b505050508473ffffffffffffffffffffffffffffffffffffffff168673ffffffffffffffffffffffffffffffffffffffff167fddf252ad1be2c89b69c2b068fc378daa952ba7f163c4a11628f55a4df523b3ef856040516200095e919062000b87565b60405180910390a3505050505050565b600080600160008473ffffffffffffffffffffffffffffffffffffffff1673ffffffffffffffffffffffffffffffffffffffff16815260200190815260200160002060009054906101000a900473ffffffffffffffffffffffffffffffffffffffff1690508073ffffffffffffffffffffffffffffffffffffffff166312065fe06040518163ffffffff1660e01b8152600401602060405180830381865afa15801562000a1f573d6000803e3d6000fd5b505050506040513d601f19601f8201168201806040525081019062000a45919062000dc5565b915050919050565b610d858062000f1283390190565b600080fd5b600073ffffffffffffffffffffffffffffffffffffffff82169050919050565b600062000a8d8262000a60565b9050919050565b62000a9f8162000a80565b811462000aab57600080fd5b50565b60008135905062000abf8162000a94565b92915050565b60006020828403121562000ade5762000add62000a5b565b5b600062000aee8482850162000aae565b91505092915050565b62000b028162000a80565b82525050565b600060208201905062000b1f600083018462000af7565b92915050565b6000806040838503121562000b3f5762000b3e62000a5b565b5b600062000b4f8582860162000aae565b925050602062000b628582860162000aae565b9150509250929050565b6000819050919050565b62000b818162000b6c565b82525050565b600060208201905062000b9e600083018462000b76565b92915050565b62000baf8162000b6c565b811462000bbb57600080fd5b50565b60008135905062000bcf8162000ba4565b92915050565b6000806000806080858703121562000bf25762000bf162000a5b565b5b600062000c028782880162000aae565b945050602062000c158782880162000aae565b935050604062000c288782880162000aae565b925050606062000c3b8782880162000bbe565b91505092959194509250565b600082825260208201905092915050565b7f57616c6c657420616c7265616479206578697374730000000000000000000000600082015250565b600062000c9060158362000c47565b915062000c9d8262000c58565b602082019050919050565b6000602082019050818103600083015262000cc38162000c81565b9050919050565b7f53656e6465722077616c6c657420646f6573206e6f7420657869737400000000600082015250565b600062000d02601c8362000c47565b915062000d0f8262000cca565b602082019050919050565b6000602082019050818103600083015262000d358162000cf3565b9050919050565b7f52656365697665722077616c6c657420646f6573206e6f742065786973740000600082015250565b600062000d74601e8362000c47565b915062000d818262000d3c565b602082019050919050565b6000602082019050818103600083015262000da78162000d65565b9050919050565b60008151905062000dbf8162000ba4565b92915050565b60006020828403121562000dde5762000ddd62000a5b565b5b600062000dee8482850162000dae565b91505092915050565b7f496e73756666696369656e742062616c616e6365000000000000000000000000600082015250565b600062000e2f60148362000c47565b915062000e3c8262000df7565b602082019050919050565b6000602082019050818103600083015262000e628162000e20565b9050919050565b6000819050919050565b600062000e9462000e8e62000e888462000a60565b62000e69565b62000a60565b9050919050565b600062000ea88262000e73565b9050919050565b600062000ebc8262000e9b565b9050919050565b62000ece8162000eaf565b82525050565b600060608201905062000eeb600083018662000ec3565b62000efa602083018562000af7565b62000f09604083018462000b76565b94935050505056fe60a06040523480156200001157600080fd5b5060405162000d8538038062000d8583398181016040528101906200003791906200014e565b600073ffffffffffffffffffffffffffffffffffffffff168173ffffffffffffffffffffffffffffffffffffffff1603620000a9576040517f08c379a0000000000000000000000000000000000000000000000000000000008152600401620000a090620001e1565b60405180910390fd5b8073ffffffffffffffffffffffffffffffffffffffff1660808173ffffffffffffffffffffffffffffffffffffffff16815250505062000203565b600080fd5b600073ffffffffffffffffffffffffffffffffffffffff82169050919050565b60006200011682620000e9565b9050919050565b620001288162000109565b81146200013457600080fd5b50565b60008151905062000148816200011d565b92915050565b600060208284031215620001675762000166620000e4565b5b6000620001778482850162000137565b91505092915050565b600082825260208201905092915050565b7f496e76616c69642077616c6c6574206f776e6572206164647265737300000000600082015250565b6000620001c9601c8362000180565b9150620001d68262000191565b602082019050919050565b60006020820190508181036000830152620001fc81620001ba565b9050919050565b608051610b53620002326000396000818160590152818160ca01528181610229015261029a0152610b536000f3fe60806040526004361061004e5760003560e01c8063013ad6ef1461013d57806312065fe01461014757806327e235e314610172578063935f5251146101af578063beabacc8146101d857610138565b3661013857346000807f000000000000000000000000000000000000000000000000000000000000000073ffffffffffffffffffffffffffffffffffffffff1673ffffffffffffffffffffffffffffffffffffffff16815260200190815260200160002060008282546100c1919061071c565b925050819055507f000000000000000000000000000000000000000000000000000000000000000073ffffffffffffffffffffffffffffffffffffffff167f8e47b87b0ef542cdfa1659c551d88bad38aa7f452d2bbb349ab7530dfec8be8f3460405161012e919061075f565b60405180910390a2005b600080fd5b610145610201565b005b34801561015357600080fd5b5061015c610203565b604051610169919061075f565b60405180910390f35b34801561017e57600080fd5b50610199600480360381019061019491906107dd565b61020b565b6040516101a6919061075f565b60405180910390f35b3480156101bb57600080fd5b506101d660048036038101906101d19190610836565b610223565b005b3480156101e457600080fd5b506101ff60048036038101906101fa91906108b3565b610309565b005b565b600047905090565b60006020528060005260406000206000915090505481565b806000807f000000000000000000000000000000000000000000000000000000000000000073ffffffffffffffffffffffffffffffffffffffff1673ffffffffffffffffffffffffffffffffffffffff1681526020019081526020016000206000828254610291919061071c565b925050819055507f000000000000000000000000000000000000000000000000000000000000000073ffffffffffffffffffffffffffffffffffffffff167f8e47b87b0ef542cdfa1659c551d88bad38aa7f452d2bbb349ab7530dfec8be8f826040516102fe919061075f565b60405180910390a250565b600073ffffffffffffffffffffffffffffffffffffffff168273ffffffffffffffffffffffffffffffffffffffff16036104b457806000803373ffffffffffffffffffffffffffffffffffffffff1673ffffffffffffffffffffffffffffffffffffffff1681526020019081526020016000205410156103be576040517f08c379a00000000000000000000000000000000000000000000000000000000081526004016103b590610963565b60405180910390fd5b806000803373ffffffffffffffffffffffffffffffffffffffff1673ffffffffffffffffffffffffffffffffffffffff168152602001908152602001600020600082825461040c9190610983565b92505081905550806000808573ffffffffffffffffffffffffffffffffffffffff1673ffffffffffffffffffffffffffffffffffffffff1681526020019081526020016000206000828254610461919061071c565b925050819055508273ffffffffffffffffffffffffffffffffffffffff166108fc829081150290604051600060405180830381858888f193505050501580156104ae573d6000803e3d6000fd5b506106de565b6000829050818173ffffffffffffffffffffffffffffffffffffffff166370a08231306040518263ffffffff1660e01b81526004016104f391906109c6565b602060405180830381865afa158015610510573d6000803e3d6000fd5b505050506040513d601f19601f8201168201806040525081019061053491906109f6565b1015610575576040517f08c379a000000000000000000000000000000000000000000000000000000000815260040161056c90610963565b60405180910390fd5b816000803373ffffffffffffffffffffffffffffffffffffffff1673ffffffffffffffffffffffffffffffffffffffff16815260200190815260200160002060008282546105c39190610983565b92505081905550816000808673ffffffffffffffffffffffffffffffffffffffff1673ffffffffffffffffffffffffffffffffffffffff1681526020019081526020016000206000828254610618919061071c565b925050819055508073ffffffffffffffffffffffffffffffffffffffff1663a9059cbb85846040518363ffffffff1660e01b815260040161065a929190610a23565b6020604051808303816000875af1158015610679573d6000803e3d6000fd5b505050506040513d601f19601f8201168201806040525081019061069d9190610a84565b6106dc576040517f08c379a00000000000000000000000000000000000000000000000000000000081526004016106d390610afd565b60405180910390fd5b505b505050565b6000819050919050565b7f4e487b7100000000000000000000000000000000000000000000000000000000600052601160045260246000fd5b6000610727826106e3565b9150610732836106e3565b925082820190508082111561074a576107496106ed565b5b92915050565b610759816106e3565b82525050565b60006020820190506107746000830184610750565b92915050565b600080fd5b600073ffffffffffffffffffffffffffffffffffffffff82169050919050565b60006107aa8261077f565b9050919050565b6107ba8161079f565b81146107c557600080fd5b50565b6000813590506107d7816107b1565b92915050565b6000602082840312156107f3576107f261077a565b5b6000610801848285016107c8565b91505092915050565b610813816106e3565b811461081e57600080fd5b50565b6000813590506108308161080a565b92915050565b60006020828403121561084c5761084b61077a565b5b600061085a84828501610821565b91505092915050565b600061086e8261077f565b9050919050565b600061088082610863565b9050919050565b61089081610875565b811461089b57600080fd5b50565b6000813590506108ad81610887565b92915050565b6000806000606084860312156108cc576108cb61077a565b5b60006108da8682870161089e565b93505060206108eb868287016107c8565b92505060406108fc86828701610821565b9150509250925092565b600082825260208201905092915050565b7f496e73756666696369656e742062616c616e6365000000000000000000000000600082015250565b600061094d601483610906565b915061095882610917565b602082019050919050565b6000602082019050818103600083015261097c81610940565b9050919050565b600061098e826106e3565b9150610999836106e3565b92508282039050818111156109b1576109b06106ed565b5b92915050565b6109c08161079f565b82525050565b60006020820190506109db60008301846109b7565b92915050565b6000815190506109f08161080a565b92915050565b600060208284031215610a0c57610a0b61077a565b5b6000610a1a848285016109e1565b91505092915050565b6000604082019050610a3860008301856109b7565b610a456020830184610750565b9392505050565b60008115159050919050565b610a6181610a4c565b8114610a6c57600080fd5b50565b600081519050610a7e81610a58565b92915050565b600060208284031215610a9a57610a9961077a565b5b6000610aa884828501610a6f565b91505092915050565b7f546f6b656e207472616e73666572206661696c65640000000000000000000000600082015250565b6000610ae7601583610906565b9150610af282610ab1565b602082019050919050565b60006020820190508181036000830152610b1681610ada565b905091905056fea2646970667358221220ca503cb9cf66217ed8c849a8f3e0a3568e699b9f99f14bb6071fcdec2b46e96564736f6c63430008130033a26469706673582212201fc299ac194c545f7514d96e40e32c7fd7a6942aed3435675ac23fc27bd1b92d64736f6c63430008130033",
  "linkReferences": {},
  "deployedLinkReferences": {}
}