{
  "_format": "hh-sol-artifact-1",
  "contractName": "WalletContract",
  "sourceName": "contracts/WalletContract.sol",
  "abi": [
    {
      "inputs": [
        {
          "internalType": "address",
          "name": "walletOwner",
          "type": "address"
        }
      ],
      "stateMutability": "nonpayable",
      "type": "constructor"
    },
    {
      "anonymous": false,
      "inputs": [
        {
          "indexed": true,
          "internalType": "address",
          "name": "owner",
          "type": "address"
        },
        {
          "indexed": false,
          "internalType": "uint256",
          "name": "amount",
          "type": "uint256"
        }
      ],
      "name": "FundsReceived",
      "type": "event"
    },
    {
      "inputs": [
        {
          "internalType": "address",
          "name": "",
          "type": "address"
        }
      ],
      "name": "balances",
      "outputs": [
        {
          "internalType": "uint256",
          "name": "",
          "type": "uint256"
        }
      ],
      "stateMutability": "view",
      "type": "function"
    },
    {
      "inputs": [],
      "name": "getBalance",
      "outputs": [
        {
          "internalType": "uint256",
          "name": "",
          "type": "uint256"
        }
      ],
      "stateMutability": "view",
      "type": "function"
    },
    {
      "inputs": [],
      "name": "getMATICBalance",
      "outputs": [
        {
          "internalType": "uint256",
          "name": "",
          "type": "uint256"
        }
      ],
      "stateMutability": "view",
      "type": "function"
    },
    {
      "inputs": [],
      "name": "maticTokenAddress",
      "outputs": [
        {
          "internalType": "address",
          "name": "",
          "type": "address"
        }
      ],
      "stateMutability": "view",
      "type": "function"
    },
    {
      "inputs": [],
      "name": "receiveMATIC",
      "outputs": [],
      "stateMutability": "payable",
      "type": "function"
    },
    {
      "inputs": [
        {
          "internalType": "uint256",
          "name": "amount",
          "type": "uint256"
        }
      ],
      "name": "receiveMATIC",
      "outputs": [],
      "stateMutability": "nonpayable",
      "type": "function"
    },
    {
      "inputs": [
        {
          "internalType": "address",
          "name": "",
          "type": "address"
        },
        {
          "internalType": "address",
          "name": "",
          "type": "address"
        }
      ],
      "name": "tokenBalances",
      "outputs": [
        {
          "internalType": "uint256",
          "name": "",
          "type": "uint256"
        }
      ],
      "stateMutability": "view",
      "type": "function"
    },
    {
      "inputs": [
        {
          "internalType": "contract WalletContract",
          "name": "to",
          "type": "address"
        },
        {
          "internalType": "address",
          "name": "token",
          "type": "address"
        },
        {
          "internalType": "uint256",
          "name": "amount",
          "type": "uint256"
        }
      ],
      "name": "transfer",
      "outputs": [],
      "stateMutability": "nonpayable",
      "type": "function"
    },
    {
      "stateMutability": "payable",
      "type": "receive"
    }
  ],
  "bytecode": "0x60a06040523480156200001157600080fd5b5060405162000f8538038062000f8583398181016040528101906200003791906200014e565b600073ffffffffffffffffffffffffffffffffffffffff168173ffffffffffffffffffffffffffffffffffffffff1603620000a9576040517f08c379a0000000000000000000000000000000000000000000000000000000008152600401620000a090620001e1565b60405180910390fd5b8073ffffffffffffffffffffffffffffffffffffffff1660808173ffffffffffffffffffffffffffffffffffffffff16815250505062000203565b600080fd5b600073ffffffffffffffffffffffffffffffffffffffff82169050919050565b60006200011682620000e9565b9050919050565b620001288162000109565b81146200013457600080fd5b50565b60008151905062000148816200011d565b92915050565b600060208284031215620001675762000166620000e4565b5b6000620001778482850162000137565b91505092915050565b600082825260208201905092915050565b7f496e76616c69642077616c6c6574206f776e6572206164647265737300000000600082015250565b6000620001c9601c8362000180565b9150620001d68262000191565b602082019050919050565b60006020820190508181036000830152620001fc81620001ba565b9050919050565b608051610d4c6200023960003960008181608a0152818160fb015281816102ef015281816103ca015261043b0152610d4c6000f3fe60806040526004361061007f5760003560e01c80634dbf6c5a1161004e5780634dbf6c5a1461020b578063935f525114610248578063beabacc814610271578063e236ecdf1461029a57610169565b8063013ad6ef1461016e57806312065fe01461017857806327e235e3146101a357806332a572ee146101e057610169565b3661016957346000807f000000000000000000000000000000000000000000000000000000000000000073ffffffffffffffffffffffffffffffffffffffff1673ffffffffffffffffffffffffffffffffffffffff16815260200190815260200160002060008282546100f291906108d5565b925050819055507f000000000000000000000000000000000000000000000000000000000000000073ffffffffffffffffffffffffffffffffffffffff167f8e47b87b0ef542cdfa1659c551d88bad38aa7f452d2bbb349ab7530dfec8be8f3460405161015f9190610918565b60405180910390a2005b600080fd5b6101766102c5565b005b34801561018457600080fd5b5061018d6102c7565b60405161019a9190610918565b60405180910390f35b3480156101af57600080fd5b506101ca60048036038101906101c59190610996565b6102cf565b6040516101d79190610918565b60405180910390f35b3480156101ec57600080fd5b506101f56102e7565b6040516102029190610918565b60405180910390f35b34801561021757600080fd5b50610232600480360381019061022d91906109c3565b61039f565b60405161023f9190610918565b60405180910390f35b34801561025457600080fd5b5061026f600480360381019061026a9190610a2f565b6103c4565b005b34801561027d57600080fd5b5061029860048036038101906102939190610aac565b6104aa565b005b3480156102a657600080fd5b506102af610884565b6040516102bc9190610b0e565b60405180910390f35b565b600047905090565b60006020528060005260406000206000915090505481565b6000600160007f000000000000000000000000000000000000000000000000000000000000000073ffffffffffffffffffffffffffffffffffffffff1673ffffffffffffffffffffffffffffffffffffffff1681526020019081526020016000206000739c3c9283d3e44854697cd22d3faa240cfb03288973ffffffffffffffffffffffffffffffffffffffff1673ffffffffffffffffffffffffffffffffffffffff16815260200190815260200160002054905090565b6001602052816000526040600020602052806000526040600020600091509150505481565b806000807f000000000000000000000000000000000000000000000000000000000000000073ffffffffffffffffffffffffffffffffffffffff1673ffffffffffffffffffffffffffffffffffffffff168152602001908152602001600020600082825461043291906108d5565b925050819055507f000000000000000000000000000000000000000000000000000000000000000073ffffffffffffffffffffffffffffffffffffffff167f8e47b87b0ef542cdfa1659c551d88bad38aa7f452d2bbb349ab7530dfec8be8f8260405161049f9190610918565b60405180910390a250565b600073ffffffffffffffffffffffffffffffffffffffff168273ffffffffffffffffffffffffffffffffffffffff160361065557806000803373ffffffffffffffffffffffffffffffffffffffff1673ffffffffffffffffffffffffffffffffffffffff16815260200190815260200160002054101561055f576040517f08c379a000000000000000000000000000000000000000000000000000000000815260040161055690610b86565b60405180910390fd5b806000803373ffffffffffffffffffffffffffffffffffffffff1673ffffffffffffffffffffffffffffffffffffffff16815260200190815260200160002060008282546105ad9190610ba6565b92505081905550806000808573ffffffffffffffffffffffffffffffffffffffff1673ffffffffffffffffffffffffffffffffffffffff168152602001908152602001600020600082825461060291906108d5565b925050819055508273ffffffffffffffffffffffffffffffffffffffff166108fc829081150290604051600060405180830381858888f1935050505015801561064f573d6000803e3d6000fd5b5061087f565b6000829050818173ffffffffffffffffffffffffffffffffffffffff166370a08231306040518263ffffffff1660e01b81526004016106949190610b0e565b602060405180830381865afa1580156106b1573d6000803e3d6000fd5b505050506040513d601f19601f820116820180604052508101906106d59190610bef565b1015610716576040517f08c379a000000000000000000000000000000000000000000000000000000000815260040161070d90610b86565b60405180910390fd5b816000803373ffffffffffffffffffffffffffffffffffffffff1673ffffffffffffffffffffffffffffffffffffffff16815260200190815260200160002060008282546107649190610ba6565b92505081905550816000808673ffffffffffffffffffffffffffffffffffffffff1673ffffffffffffffffffffffffffffffffffffffff16815260200190815260200160002060008282546107b991906108d5565b925050819055508073ffffffffffffffffffffffffffffffffffffffff1663a9059cbb85846040518363ffffffff1660e01b81526004016107fb929190610c1c565b6020604051808303816000875af115801561081a573d6000803e3d6000fd5b505050506040513d601f19601f8201168201806040525081019061083e9190610c7d565b61087d576040517f08c379a000000000000000000000000000000000000000000000000000000000815260040161087490610cf6565b60405180910390fd5b505b505050565b739c3c9283d3e44854697cd22d3faa240cfb03288981565b6000819050919050565b7f4e487b7100000000000000000000000000000000000000000000000000000000600052601160045260246000fd5b60006108e08261089c565b91506108eb8361089c565b9250828201905080821115610903576109026108a6565b5b92915050565b6109128161089c565b82525050565b600060208201905061092d6000830184610909565b92915050565b600080fd5b600073ffffffffffffffffffffffffffffffffffffffff82169050919050565b600061096382610938565b9050919050565b61097381610958565b811461097e57600080fd5b50565b6000813590506109908161096a565b92915050565b6000602082840312156109ac576109ab610933565b5b60006109ba84828501610981565b91505092915050565b600080604083850312156109da576109d9610933565b5b60006109e885828601610981565b92505060206109f985828601610981565b9150509250929050565b610a0c8161089c565b8114610a1757600080fd5b50565b600081359050610a2981610a03565b92915050565b600060208284031215610a4557610a44610933565b5b6000610a5384828501610a1a565b91505092915050565b6000610a6782610938565b9050919050565b6000610a7982610a5c565b9050919050565b610a8981610a6e565b8114610a9457600080fd5b50565b600081359050610aa681610a80565b92915050565b600080600060608486031215610ac557610ac4610933565b5b6000610ad386828701610a97565b9350506020610ae486828701610981565b9250506040610af586828701610a1a565b9150509250925092565b610b0881610958565b82525050565b6000602082019050610b236000830184610aff565b92915050565b600082825260208201905092915050565b7f496e73756666696369656e742062616c616e6365000000000000000000000000600082015250565b6000610b70601483610b29565b9150610b7b82610b3a565b602082019050919050565b60006020820190508181036000830152610b9f81610b63565b9050919050565b6000610bb18261089c565b9150610bbc8361089c565b9250828203905081811115610bd457610bd36108a6565b5b92915050565b600081519050610be981610a03565b92915050565b600060208284031215610c0557610c04610933565b5b6000610c1384828501610bda565b91505092915050565b6000604082019050610c316000830185610aff565b610c3e6020830184610909565b9392505050565b60008115159050919050565b610c5a81610c45565b8114610c6557600080fd5b50565b600081519050610c7781610c51565b92915050565b600060208284031215610c9357610c92610933565b5b6000610ca184828501610c68565b91505092915050565b7f546f6b656e207472616e73666572206661696c65640000000000000000000000600082015250565b6000610ce0601583610b29565b9150610ceb82610caa565b602082019050919050565b60006020820190508181036000830152610d0f81610cd3565b905091905056fea2646970667358221220af47159ab8b82f326197f70130a8b084add314fa87d0f89b60d5cc52869882b864736f6c63430008130033",
  "linkReferences": {},
  "deployedLinkReferences": {}
}