{
  "_format": "hh-sol-artifact-1",
  "contractName": "WalletContractDeployer",
  "sourceName": "contracts/WalletContractDeployer.sol",
  "abi": [
    {
      "anonymous": false,
      "inputs": [
        {
          "indexed": true,
          "internalType": "address",
          "name": "from",
          "type": "address"
        },
        {
          "indexed": true,
          "internalType": "address",
          "name": "to",
          "type": "address"
        },
        {
          "indexed": false,
          "internalType": "uint256",
          "name": "amount",
          "type": "uint256"
        }
      ],
      "name": "Transfer",
      "type": "event"
    },
    {
      "anonymous": false,
      "inputs": [
        {
          "indexed": true,
          "internalType": "address",
          "name": "owner",
          "type": "address"
        },
        {
          "indexed": true,
          "internalType": "address",
          "name": "walletAddress",
          "type": "address"
        }
      ],
      "name": "WalletCreated",
      "type": "event"
    },
    {
      "inputs": [],
      "name": "createWallet",
      "outputs": [],
      "stateMutability": "nonpayable",
      "type": "function"
    },
    {
      "inputs": [
        {
          "internalType": "address",
          "name": "walletOwner",
          "type": "address"
        }
      ],
      "name": "getBalance",
      "outputs": [
        {
          "internalType": "uint256",
          "name": "",
          "type": "uint256"
        }
      ],
      "stateMutability": "view",
      "type": "function"
    },
    {
      "inputs": [
        {
          "internalType": "address",
          "name": "walletOwner",
          "type": "address"
        }
      ],
      "name": "getWalletAddress",
      "outputs": [
        {
          "internalType": "address",
          "name": "",
          "type": "address"
        }
      ],
      "stateMutability": "view",
      "type": "function"
    },
    {
      "inputs": [
        {
          "internalType": "address",
          "name": "walletAddress",
          "type": "address"
        }
      ],
      "name": "getWalletOwner",
      "outputs": [
        {
          "internalType": "address",
          "name": "",
          "type": "address"
        }
      ],
      "stateMutability": "view",
      "type": "function"
    },
    {
      "inputs": [
        {
          "internalType": "address",
          "name": "",
          "type": "address"
        },
        {
          "internalType": "address",
          "name": "",
          "type": "address"
        }
      ],
      "name": "tokenBalances",
      "outputs": [
        {
          "internalType": "uint256",
          "name": "",
          "type": "uint256"
        }
      ],
      "stateMutability": "view",
      "type": "function"
    },
    {
      "inputs": [
        {
          "internalType": "address",
          "name": "from",
          "type": "address"
        },
        {
          "internalType": "address",
          "name": "to",
          "type": "address"
        },
        {
          "internalType": "address",
          "name": "token",
          "type": "address"
        },
        {
          "internalType": "uint256",
          "name": "amount",
          "type": "uint256"
        }
      ],
      "name": "transfer",
      "outputs": [],
      "stateMutability": "nonpayable",
      "type": "function"
    }
  ],
  "bytecode": "0x608060405234801561001057600080fd5b506118f0806100206000396000f3fe60806040523480156200001157600080fd5b50600436106200006a5760003560e01c806311ebbf24146200006f5780631fd9afa5146200007b5780634dbf6c5a14620000b1578063966708a514620000e7578063f18d03cc146200011d578063f8b2cb4f146200013d575b600080fd5b6200007962000173565b005b62000099600480360381019062000093919062000ac0565b6200046e565b604051620000a8919062000b03565b60405180910390f35b620000cf6004803603810190620000c9919062000b20565b620004d7565b604051620000de919062000b82565b60405180910390f35b620001056004803603810190620000ff919062000ac0565b620004fc565b60405162000114919062000b03565b60405180910390f35b6200013b600480360381019062000135919062000bd0565b62000567565b005b6200015b600480360381019062000155919062000ac0565b6200096e565b6040516200016a919062000b82565b60405180910390f35b600073ffffffffffffffffffffffffffffffffffffffff166000803373ffffffffffffffffffffffffffffffffffffffff1673ffffffffffffffffffffffffffffffffffffffff16815260200190815260200160002060000160009054906101000a900473ffffffffffffffffffffffffffffffffffffffff1673ffffffffffffffffffffffffffffffffffffffff161462000246576040517f08c379a00000000000000000000000000000000000000000000000000000000081526004016200023d9062000ca3565b60405180910390fd5b600033604051620002579062000a48565b62000263919062000b03565b604051809103906000f08015801562000280573d6000803e3d6000fd5b50905060405180604001604052803373ffffffffffffffffffffffffffffffffffffffff1681526020018273ffffffffffffffffffffffffffffffffffffffff168152506000803373ffffffffffffffffffffffffffffffffffffffff1673ffffffffffffffffffffffffffffffffffffffff16815260200190815260200160002060008201518160000160006101000a81548173ffffffffffffffffffffffffffffffffffffffff021916908373ffffffffffffffffffffffffffffffffffffffff16021790555060208201518160010160006101000a81548173ffffffffffffffffffffffffffffffffffffffff021916908373ffffffffffffffffffffffffffffffffffffffff16021790555090505080600160003373ffffffffffffffffffffffffffffffffffffffff1673ffffffffffffffffffffffffffffffffffffffff16815260200190815260200160002060006101000a81548173ffffffffffffffffffffffffffffffffffffffff021916908373ffffffffffffffffffffffffffffffffffffffff1602179055508073ffffffffffffffffffffffffffffffffffffffff163373ffffffffffffffffffffffffffffffffffffffff167f5b03bfed1c14a02bdeceb5fa582eb1a5765fc0bc64ca0e6af4c20afc9487f08160405160405180910390a350565b6000600160008373ffffffffffffffffffffffffffffffffffffffff1673ffffffffffffffffffffffffffffffffffffffff16815260200190815260200160002060009054906101000a900473ffffffffffffffffffffffffffffffffffffffff169050919050565b6002602052816000526040600020602052806000526040600020600091509150505481565b60008060008373ffffffffffffffffffffffffffffffffffffffff1673ffffffffffffffffffffffffffffffffffffffff16815260200190815260200160002060000160009054906101000a900473ffffffffffffffffffffffffffffffffffffffff169050919050565b600073ffffffffffffffffffffffffffffffffffffffff166000808673ffffffffffffffffffffffffffffffffffffffff1673ffffffffffffffffffffffffffffffffffffffff16815260200190815260200160002060000160009054906101000a900473ffffffffffffffffffffffffffffffffffffffff1673ffffffffffffffffffffffffffffffffffffffff16036200063a576040517f08c379a0000000000000000000000000000000000000000000000000000000008152600401620006319062000d15565b60405180910390fd5b600073ffffffffffffffffffffffffffffffffffffffff166000808573ffffffffffffffffffffffffffffffffffffffff1673ffffffffffffffffffffffffffffffffffffffff16815260200190815260200160002060000160009054906101000a900473ffffffffffffffffffffffffffffffffffffffff1673ffffffffffffffffffffffffffffffffffffffff16036200070d576040517f08c379a0000000000000000000000000000000000000000000000000000000008152600401620007049062000d87565b60405180910390fd5b6000600160008673ffffffffffffffffffffffffffffffffffffffff1673ffffffffffffffffffffffffffffffffffffffff16815260200190815260200160002060009054906101000a900473ffffffffffffffffffffffffffffffffffffffff1690506000600160008673ffffffffffffffffffffffffffffffffffffffff1673ffffffffffffffffffffffffffffffffffffffff16815260200190815260200160002060009054906101000a900473ffffffffffffffffffffffffffffffffffffffff169050828273ffffffffffffffffffffffffffffffffffffffff166312065fe06040518163ffffffff1660e01b8152600401602060405180830381865afa15801562000822573d6000803e3d6000fd5b505050506040513d601f19601f8201168201806040525081019062000848919062000dc0565b10156200088c576040517f08c379a0000000000000000000000000000000000000000000000000000000008152600401620008839062000e42565b60405180910390fd5b8173ffffffffffffffffffffffffffffffffffffffff1663beabacc88286866040518463ffffffff1660e01b8152600401620008cb9392919062000ecf565b600060405180830381600087803b158015620008e657600080fd5b505af1158015620008fb573d6000803e3d6000fd5b505050508473ffffffffffffffffffffffffffffffffffffffff168673ffffffffffffffffffffffffffffffffffffffff167fddf252ad1be2c89b69c2b068fc378daa952ba7f163c4a11628f55a4df523b3ef856040516200095e919062000b82565b60405180910390a3505050505050565b6000600160008373ffffffffffffffffffffffffffffffffffffffff1673ffffffffffffffffffffffffffffffffffffffff16815260200190815260200160002060009054906101000a900473ffffffffffffffffffffffffffffffffffffffff1673ffffffffffffffffffffffffffffffffffffffff166312065fe06040518163ffffffff1660e01b8152600401602060405180830381865afa15801562000a1b573d6000803e3d6000fd5b505050506040513d601f19601f8201168201806040525081019062000a41919062000dc0565b9050919050565b6109ae8062000f0d83390190565b600080fd5b600073ffffffffffffffffffffffffffffffffffffffff82169050919050565b600062000a888262000a5b565b9050919050565b62000a9a8162000a7b565b811462000aa657600080fd5b50565b60008135905062000aba8162000a8f565b92915050565b60006020828403121562000ad95762000ad862000a56565b5b600062000ae98482850162000aa9565b91505092915050565b62000afd8162000a7b565b82525050565b600060208201905062000b1a600083018462000af2565b92915050565b6000806040838503121562000b3a5762000b3962000a56565b5b600062000b4a8582860162000aa9565b925050602062000b5d8582860162000aa9565b9150509250929050565b6000819050919050565b62000b7c8162000b67565b82525050565b600060208201905062000b99600083018462000b71565b92915050565b62000baa8162000b67565b811462000bb657600080fd5b50565b60008135905062000bca8162000b9f565b92915050565b6000806000806080858703121562000bed5762000bec62000a56565b5b600062000bfd8782880162000aa9565b945050602062000c108782880162000aa9565b935050604062000c238782880162000aa9565b925050606062000c368782880162000bb9565b91505092959194509250565b600082825260208201905092915050565b7f57616c6c657420616c7265616479206578697374730000000000000000000000600082015250565b600062000c8b60158362000c42565b915062000c988262000c53565b602082019050919050565b6000602082019050818103600083015262000cbe8162000c7c565b9050919050565b7f53656e6465722077616c6c657420646f6573206e6f7420657869737400000000600082015250565b600062000cfd601c8362000c42565b915062000d0a8262000cc5565b602082019050919050565b6000602082019050818103600083015262000d308162000cee565b9050919050565b7f52656365697665722077616c6c657420646f6573206e6f742065786973740000600082015250565b600062000d6f601e8362000c42565b915062000d7c8262000d37565b602082019050919050565b6000602082019050818103600083015262000da28162000d60565b9050919050565b60008151905062000dba8162000b9f565b92915050565b60006020828403121562000dd95762000dd862000a56565b5b600062000de98482850162000da9565b91505092915050565b7f496e73756666696369656e742062616c616e6365000000000000000000000000600082015250565b600062000e2a60148362000c42565b915062000e378262000df2565b602082019050919050565b6000602082019050818103600083015262000e5d8162000e1b565b9050919050565b6000819050919050565b600062000e8f62000e8962000e838462000a5b565b62000e64565b62000a5b565b9050919050565b600062000ea38262000e6e565b9050919050565b600062000eb78262000e96565b9050919050565b62000ec98162000eaa565b82525050565b600060608201905062000ee6600083018662000ebe565b62000ef5602083018562000af2565b62000f04604083018462000b71565b94935050505056fe60a060405234801561001057600080fd5b506040516109ae3803806109ae8339818101604052810190610032919061013e565b600073ffffffffffffffffffffffffffffffffffffffff168173ffffffffffffffffffffffffffffffffffffffff16036100a1576040517f08c379a0000000000000000000000000000000000000000000000000000000008152600401610098906101c8565b60405180910390fd5b8073ffffffffffffffffffffffffffffffffffffffff1660808173ffffffffffffffffffffffffffffffffffffffff1681525050506101e8565b600080fd5b600073ffffffffffffffffffffffffffffffffffffffff82169050919050565b600061010b826100e0565b9050919050565b61011b81610100565b811461012657600080fd5b50565b60008151905061013881610112565b92915050565b600060208284031215610154576101536100db565b5b600061016284828501610129565b91505092915050565b600082825260208201905092915050565b7f496e76616c69642077616c6c6574206f776e6572206164647265737300000000600082015250565b60006101b2601c8361016b565b91506101bd8261017c565b602082019050919050565b600060208201905081810360008301526101e1816101a5565b9050919050565b6080516107ac610202600039600060d201526107ac6000f3fe608060405234801561001057600080fd5b50600436106100415760003560e01c806312065fe01461004657806327e235e314610064578063beabacc814610094575b600080fd5b61004e6100b0565b60405161005b91906103bf565b60405180910390f35b61007e6004803603810190610079919061043d565b6100b8565b60405161008b91906103bf565b60405180910390f35b6100ae60048036038101906100a991906104d4565b6100d0565b005b600047905090565b60006020528060005260406000206000915090505481565b7f000000000000000000000000000000000000000000000000000000000000000073ffffffffffffffffffffffffffffffffffffffff163373ffffffffffffffffffffffffffffffffffffffff161461015e576040517f08c379a000000000000000000000000000000000000000000000000000000000815260040161015590610584565b60405180910390fd5b600073ffffffffffffffffffffffffffffffffffffffff168273ffffffffffffffffffffffffffffffffffffffff160361022157804710156101d5576040517f08c379a00000000000000000000000000000000000000000000000000000000081526004016101cc906105f0565b60405180910390fd5b8273ffffffffffffffffffffffffffffffffffffffff166108fc829081150290604051600060405180830381858888f1935050505015801561021b573d6000803e3d6000fd5b506103a1565b6000829050818173ffffffffffffffffffffffffffffffffffffffff166370a08231306040518263ffffffff1660e01b8152600401610260919061061f565b602060405180830381865afa15801561027d573d6000803e3d6000fd5b505050506040513d601f19601f820116820180604052508101906102a1919061064f565b10156102e2576040517f08c379a00000000000000000000000000000000000000000000000000000000081526004016102d9906105f0565b60405180910390fd5b8073ffffffffffffffffffffffffffffffffffffffff1663a9059cbb85846040518363ffffffff1660e01b815260040161031d92919061067c565b6020604051808303816000875af115801561033c573d6000803e3d6000fd5b505050506040513d601f19601f8201168201806040525081019061036091906106dd565b61039f576040517f08c379a000000000000000000000000000000000000000000000000000000000815260040161039690610756565b60405180910390fd5b505b505050565b6000819050919050565b6103b9816103a6565b82525050565b60006020820190506103d460008301846103b0565b92915050565b600080fd5b600073ffffffffffffffffffffffffffffffffffffffff82169050919050565b600061040a826103df565b9050919050565b61041a816103ff565b811461042557600080fd5b50565b60008135905061043781610411565b92915050565b600060208284031215610453576104526103da565b5b600061046184828501610428565b91505092915050565b6000610475826103ff565b9050919050565b6104858161046a565b811461049057600080fd5b50565b6000813590506104a28161047c565b92915050565b6104b1816103a6565b81146104bc57600080fd5b50565b6000813590506104ce816104a8565b92915050565b6000806000606084860312156104ed576104ec6103da565b5b60006104fb86828701610493565b935050602061050c86828701610428565b925050604061051d868287016104bf565b9150509250925092565b600082825260208201905092915050565b7f43616c6c6572206973206e6f7420746865206f776e6572000000000000000000600082015250565b600061056e601783610527565b915061057982610538565b602082019050919050565b6000602082019050818103600083015261059d81610561565b9050919050565b7f496e73756666696369656e742062616c616e6365000000000000000000000000600082015250565b60006105da601483610527565b91506105e5826105a4565b602082019050919050565b60006020820190508181036000830152610609816105cd565b9050919050565b610619816103ff565b82525050565b60006020820190506106346000830184610610565b92915050565b600081519050610649816104a8565b92915050565b600060208284031215610665576106646103da565b5b60006106738482850161063a565b91505092915050565b60006040820190506106916000830185610610565b61069e60208301846103b0565b9392505050565b60008115159050919050565b6106ba816106a5565b81146106c557600080fd5b50565b6000815190506106d7816106b1565b92915050565b6000602082840312156106f3576106f26103da565b5b6000610701848285016106c8565b91505092915050565b7f546f6b656e207472616e73666572206661696c65640000000000000000000000600082015250565b6000610740601583610527565b915061074b8261070a565b602082019050919050565b6000602082019050818103600083015261076f81610733565b905091905056fea264697066735822122085136f0ebd1697249dfe1bb5c7751b3dc25d86f2adc28f271735b6ace0a32c9b64736f6c63430008130033a264697066735822122098a7bb05df4a99ab119b50afab826a45a58f8c6f2b122a3183662839f0e4b66c64736f6c63430008130033",
  "linkReferences": {},
  "deployedLinkReferences": {}
}